:020000040800F2
:10000000FFFF002031D0000875D0000875D000082F
:1000100075D0000875D0000875D0000800000000F9
:10002000000000000000000000000000DDA100084A
:1000300075D000080000000059A20008E5A20008E1
:1000400075D0000875D0000875D0000875D000087C
:1000500075D0000875D0000875D0000875D000086C
:1000600075D0000875D0000875D00008F10C0008A4
:1000700075D0000875D0000875D0000875D000084C
:1000800075D0000875D0000875D0000875D000083C
:1000900075D0000875D0000875D0000875D000082C
:1000A00075D0000875D0000875D0000875D000081C
:1000B00075D0000875D0000875D0000875D000080C
:1000C00075D0000875D0000875D0000875D00008FC
:1000D00075D000087514000875D0000875D00008A8
:1000E000B912000875D0000875D0000875D0000856
:1000F00075D0000875D0000875D0000875D00008CC
:1001000075D0000875D0000875D0000875D00008BB
:1001100075D0000875D0000875D0000875D00008AB
:1001200075D0000875D0000875D0000875D000089B
:1001300000000000000000000000000000000000BF
:1001400000000000000000000000000000000000AF
:10015000000000000000000000000000000000009F
:10016000000000000000000000000000000000008F
:10017000000000000000000000000000000000007F
:10018000000000000000000000000000000000006F
:10019000000000000000000000000000000000005F
:1001A000000000000000000000000000000000004F
:1001B000000000000000000000000000000000003F
:1001C000000000000000000000000000000000002F
:1001D000000000000000000000000000000000001F
:0401E0005FF8E0F1F3
:1001E80008B545F2555007F05FFB4FF0060007F0E1
:1001F80061FB40F21A6007F063FB07F067FB07F04A
:100208006DFB08BD08B507F061FB0AF051FD01461A
:1002180040F2D033C2F20003186804F0EFFBB0F5E7
:100228007A7F08D903F044FB0AF042FD40F2D0334C
:10023800C2F20003186008BD08B54FF4407004F01E
:1002480073FC08BD38B503F04FFB01F0DFF8FFF78A
:10025800C7FF00F011FE42F20F7000F037FF4FF0B9
:1002680001004FF4164101F031FC4FF001004FF04E
:1002780000010AF077FA48F2F853C2F20003186056
:1002880042F64872C2F200024FF00003137040F2C7
:100298000004C2F2000448F2FC5CC2F2000C4FF009
:1002A8009A0534F8131005FB03C202F1080210790D
:1002B800117150794FEA1121517103F10103102B8B
:1002C800EFD138BD08B5FFF7B7FFFFF7BBFF4FF019
:1002D800040000F0E1F84FF0020003F009FF4FF0CE
:1002E800030001F0B3FC0AF0B9FF4FF0000008BDAD
:1002F8002DE9F005884611B34FF000074FF0010AC9
:1003080016E003F1FF3400EB4404B4F800C000EB3E
:1003180043021588AC4584BF2580A2F800C003F1CC
:1003280001039BB2B342ECDB07F10107B84506DDD8
:10033800C7EB0106012EC8BF5346E2DCF4E7BDE86F
:10034800F00570472DE9F00F4FF0000A48F2FC5411
:10035800C2F200044FF09A0B43F65C35C2F2000576
:10036800D1460BFB0A4303F10802117992F805C044
:1003780041EA0C2C4FF4FA6202FB0A52108880B250
:1003880003F168039A79DB7952EA03237AD060454E
:1003980094BF002001204FF000024FF47A7101FB56
:1003A8000AF70BFB0A4606F198034FF04D0101FBD3
:1003B8000AF968B307EB020135F8111089B28C45C8
:1003C8004DD3197893F8018041EA0821494401F195
:1003D800380114F8118004F8112004EB410191F858
:1003E80001804FEA122881F80180197893F801807A
:1003F80041EA082101F1010189B293F800801970DE
:1004080093F801804FEA1121597080F0010026E02D
:1004180007EB020135F8111089B28C451FD2197803
:10042800587841EA0021494401F1380114F81100D3
:1004380004F8112004EB410148784FEA1220487073
:100448001978587841EA002101F1010189B2187838
:10045800197058784FEA112159704FF00100197836
:1004680093F8018041EA082109290BD802F1010219
:1004780092B206F1680191F80680C97948EA012824
:10048800904596D80AF1010ABAF1030F7FF468AFD4
:10049800BDE8F00F704700BF00B585B000904FF081
:1004A800000301930293039340F68120C0F60000F5
:1004B8004EF68C01C0F600014FF400720AF0D6FD2A
:1004C80005B000BD2DE9F84F04464FF000064FF087
:1004D8000305DFF8A4804FF4007A4FF4807948F2DE
:1004E800FC57C2F200074FF09A0B204608EB0601B2
:1004F80052460CF02BFC20464946FFF7F9FEB4F8AB
:10050800F6210BFB05710B4613F8100F1A7058787B
:100518004FEA12225A70B4F8602198789A70D87805
:100528004FEA1222DA70B4F8B02118791A715879A2
:100538004FEA12225A71B4F8A02098799A71D879A2
:100548004FEA1222DA7162890B4613F8181F1A70E3
:1005580059784FEA12225A70B4F8502099789A7054
:10056800D9784FEA1222DA7005F1010506F5FA6624
:10057800092DBAD1BDE8F88FCC5200202DE9F04101
:10058800ADF5027D42F64873C2F200035B78092B91
:100598004AD842F64873C2F200035B78002B43D076
:1005A80048F2FC53C2F2000393F86E2093F86F30C0
:1005B80042EA0322B2F57A7FC0F038810AE00CFBE8
:1005C800020101F1680191F80680C97948EA012120
:1005D800B14208D942F64873C2F200031A7842F0D1
:1005E80040021A7057E135F812801FFA88F807FBA5
:1005F800021124F811800CFB020303F168039979B6
:1006080093F8078041EA082101F1010189B293F8C2
:100618000680997193F807804FEA1121D97102F188
:100628000102092ACBD1F6E042F64873C2F2000370
:100638005B780D2B00F2958042F64873C2F20003F6
:100648005B78002B00F08D8001AD40F2D436C2F209
:1006580000064FF40077284631463A460CF076FB00
:1006680042F64874C2F20004637803EB03204EF6A6
:10067800EC33CFF6FF7303EB400042F65073C2F23F
:100688000003184431463A460CF060FB28464FF404
:100698008071FFF72DFE617801F1FF31B5F8F601A1
:1006A80048F2FC53C2F200034FF09A0202FB0131F8
:1006B80011F810CF087091F801C04FEA1020487067
:1006C800617801F1FF31B5F8600102FB013101F1F8
:1006D800100191F802C0887091F803C04FEA102009
:1006E800C870617801F1FF31B5F8B00102FB013142
:1006F80001F1100191F804C0087191F805C04FEAA2
:1007080010204871617801F1FF31B5F8A00002FBB3
:10071800013101F1100191F806C0887191F807C004
:100728004FEA1020C871617801F1FF31688902FB36
:10073800013111F818CF087091F801C04FEA102064
:100748004870607800F1FF30B5F8501002FB0033B4
:1007580003F118039A789970DA784FEA1121D97061
:1007680059E042F64873C2F200035B780F2B52D867
:1007780042F64873C2F200035B78002B4BD001AEFF
:1007880040F2D435C2F200054FF4007730462946CE
:100798003A460CF0DBFA42F64874C2F20004637879
:1007A80003EB03204EF6EC33CFF6FF7303EB400068
:1007B80042F65073C2F20003184429463A460CF038
:1007C800C5FA30464FF48071FFF792FD617801F168
:1007D800FF31B6F8FE0148F2FC52C2F200024FF0B7
:1007E8009A0303FB012101F1100191F804C008717B
:1007F80091F805C04FEA10204871607800F1FF3089
:10080800318803FB002303F118039A789970DA788A
:100818004FEA1121D97042F64873C2F200035B789F
:100828000F2B38D101A8FFF74DFE34E040F2D43346
:10083800C2F20003198889B243F65C33C2F200039E
:1008480023F8121048F2FC53C2F2000393F86E200A
:1008580093F86F1042EA012202F1010292B293F872
:100868006E1083F86E2093F86F104FEA122283F807
:100878006F204FF0010218464FF09A0C40F2E7360D
:1008880040F2D435C2F2000543F65C34C2F20004EB
:100898004FF47A7793E60DF5027DBDE8F08100BF4D
:1008A8002DE9F04F83B0FFF74DFD4FF0000648F2F9
:1008B800FC57C2F200074FF09A094FF04D0B43F670
:1008C8005C35C2F20005B24609FB067202F1080364
:1008D800197993F805C041EA0C2C134613F8701FD8
:1008E80093F8018041EA082812F8983F527843EAC1
:1008F80002230BFB063303F1370317F8132007EB2A
:1009080043035C7842EA0424A04584BF0020002108
:100918001BD843464FF000004FF000014FF47A72A5
:1009280002FB06FE0FFA8CFC0EEB030235F81220D0
:1009380012B2CCEB020202FB02F2801841EBE27128
:1009480003F101039BB29C42EED20AF085FFCDE988
:100958000001C8F101084444A0B20AF03DFF024674
:100968000B46DDE900010BF0D7F80AF0A1FC0BF00B
:1009780043FA80B209FB0A7A0AF108039A79987156
:10098800DA794FEA1020D87106F10106032E9AD1C0
:1009980003B0BDE8F08F00BF2DE9F04140F2D43339
:1009A800C2F20003B3F800C20CF1010C1FFA8CFC70
:1009B800A3F800C24FF000031A4640F2D435C2F241
:1009C800000505F5017135F8120080B2CC582044B5
:1009D800C85002F1010203F10403102AF3D1BCF15B
:1009E800140F46D142F64873C2F200031A7842F057
:1009F80020021A7040F2D433C2F200034FF0000410
:100A0800A3F8004242F60040C4F20100214608F073
:100A18005FF840F20800C4F2020005F089FA2246A5
:100A280040F2D430C2F2000000F501704CF6CD4817
:100A3800CCF6CC4848F2FC55C2F200054FF09A07B4
:100A480026460159A8FB0131C1F30F1107FB0253D8
:100A580003F1080393F802C0997093F803C04FEAB2
:100A68001121D970065102F1010204F10404112A7E
:100A7800E7D1BDE8F08100BFF8B542F64C75C2F287
:100A880000054FF000064FF0FF3742F64874C2F2F7
:100A98000004286831463A46334609F0D7FC2378E3
:100AA80003F02003DBB213B9FFF776FFF1E7FFF796
:100AB80065FDEEE730B58DB040F20800C4F20200E3
:100AC80005F036FA42F24C43C4F20103009340F2B7
:100AD800D433C2F2000301934FF00003029342F6AD
:100AE8004873C2F200035B78082B99BF092303936C
:100AF8004FF4807303934FF0000504954FF0800383
:100B080005934FF4807306934FF4806307934FF077
:100B1800200308934FF4405309930A9540F20804C0
:100B2800C4F202042046694605F0C6FA4FF00B03EA
:100B38008DF82C304FF00F038DF82D308DF82E5096
:100B48004FF001058DF82F500BA803F0F7FF204652
:100B58004FF002012A4605F0F5FA2046294605F02D
:100B6800E1FA0DB030BD00BF2DE9F04186B042F684
:100B78004873C2F200035B780F2B00F2B28042F692
:100B88004873C2F200035B78002B00F0AA80FFF7DD
:100B980091FF42F20040C4F2010004F02DFA4FF038
:100BA800000301934FF001038DF8083042F64873B3
:100BB800C2F200035B78082B9DBF00238DF8093033
:100BC8000393012382BF8DF809304FF46023039308
:100BD8004FF00003049342F64873C2F200035B78B7
:100BE800082B99BF09238DF8143001238DF8143090
:100BF80042F20040C4F2010001A904F017F842F6DD
:100C08004873C2F200035B78082B1AD84FF001072B
:100C18004FF0000642F20048C4F2010840F22004F6
:100C2800C2F2000404F110054046A15DFAB2AB5DC2
:100C380004F090F806F1010607F10107092EF3D137
:100C480014E042F64873C2F2000359785B7840F228
:100C58002002C2F20002134442F20040C4F2010032
:100C6800515C4FF001021B7C04F074F842F2004022
:100C7800C4F201004FF0010104F01AF842F648737B
:100C8800C2F200035B78082B07D842F20040C4F296
:100C980001004FF0010104F0B7F842F20044C4F239
:100CA800010420464FF0010103F0F6FF204604F04E
:100CB80017F842F20044C4F20104204604F016F882
:100CC8000028FAD142F20040C4F2010004F012F800
:100CD80042F20044C4F20104204604F011F800284E
:100CE800FAD106B0BDE8F08100B583B04FF000033B
:100CF80001934FF0020005F05BFA40B34FF001009A
:100D080005F06AFA42F64873C2F200035B78082BD2
:100D180012D942F64873C2F200031B7803F040036D
:100D2800DBB24BB142F60040C4F201004FF00001C3
:100D380007F0CEFEFFF718FF42F64C73C2F200032D
:100D480018684FF0000101AA0B4609F043FC019B0B
:100D58000BB109F059FA03B000BD00BF30B58DB032
:100D680040F20804C4F20204204605F0E1F842F219
:100D78004C43C4F20103009340F2D433C2F200039F
:100D880001934FF0000502954FF01003039304956B
:100D98004FF0800305934FF4807306934FF48063FC
:100DA80007934FF0200308934FF4405309930A9593
:100DB8002046694605F080F94FF00B038DF82C307A
:100DC8004FF00F038DF82D308DF82E504FF00105A0
:100DD8008DF82F500BA803F0B1FE20464FF002010A
:100DE8002A4605F0AFF92046294605F09BF90DB0D3
:100DF80030BD00BF30B583B04FF0FF03ADF804300D
:100E08004FF000058DF8075001AC40F60000C4F221
:100E18000100214606F03CF94FF00303ADF8043019
:100E28008DF8075040F60040C4F20100214606F054
:100E38002FF94FF03F03ADF804308DF8075041F219
:100E48000000C4F20100214606F022F903B030BDCB
:100E580008B54FF01C004FF0010106F04FFF4FF4AA
:100E680000704FF0010106F049FF4FF00100014604
:100E780006F030FF08BD00BFF0B587B0FFF7E8FF08
:100E8800FFF7B8FFFFF76AFF4FF4004006F06EFE69
:100E980042F20044C4F20104204604F0ADF84FF0D9
:100EA800000601964FF001058DF808508DF809608D
:100EB800039604964FF010078DF81470204601A988
:100EC80003F0B4FE204631462A464FF0070303F0EC
:100ED80041FF204629464FF002024FF0070303F076
:100EE80039FF20464FF002014FF003024FF007038D
:100EF80003F030FF20464FF003014FF004024FF09B
:100F0800070303F027FF20464FF004014FF00502C6
:100F18004FF0070303F01EFF20464FF005014FF086
:100F280006024FF0070303F015FF20464FF00601B5
:100F38004FF00702134603F00DFF20464FF007015C
:100F48004FF008020B4603F005FF20464FF008015A
:100F58004FF009024FF0070303F0FCFE20464FF064
:100F680009014FF00A024FF0070303F0F3FE204691
:100F78004FF00A014FF00B024FF0070303F0EAFEAF
:100F880020464FF00B014FF00C024FF0070303F01F
:100F9800E1FE20464FF00C014FF00D024FF0070321
:100FA80003F0D8FE20464FF00D014FF00E024FF02F
:100FB800070303F0CFFE20464FF00E014FF00F025B
:100FC8004FF0070303F0C6FE20464FF00F013A46E4
:100FD8004FF0070303F0BEFE2046294603F068FEE3
:100FE8002046294603F010FF2046294603F054FE08
:100FF800204603F075FE42F20044C4F20104204684
:1010080003F074FE0028FAD142F20040C4F2010055
:1010180003F070FE42F20044C4F20104204603F0DB
:101028006FFE0028FAD14FF001004FF0000109F0DF
:1010380099FB42F64C73C2F20003186007B0F0BD8A
:1010480070B588B0054642F60044C4F20104A0F128
:101058000201204689B208F01BF805AE304607F0B9
:101068000DFDADF818504FF01103ADF814304FF0E6
:101078000003ADF81A30ADF816302046314607F0B7
:10108800D3FA4FF06003ADF804304FF00105ADF826
:101098000650ADF80A504FF00203ADF80C30204668
:1010A80001A907F045FB2046294607F021FD204607
:1010B800294607F00DFD08B070BD00BF08B54FF414
:1010C80000604FF0010106F019FE08BD70B588B048
:1010D800064642F60044C4F20104204608F068FAC5
:1010E800FFF7ECFF05AD284607F0C8FCADF818601F
:1010F8004FF01103ADF814304FF00003ADF81A307B
:10110800ADF816302046294607F08EFA4FF06003F6
:10111800ADF804304FF00105ADF80650ADF80A50AF
:101128004FF00203ADF80C30204601A907F000FB90
:101138002046294607F0DCFC2046294607F0C8FC73
:1011480008B070BD38B541F60004C4F20104204669
:101158004FF4004106F01CF820464FF4007106F0E9
:1011680017F820464FF4807106F012F8204605F073
:10117800FFFFC5B242F64873C2F200035D70A5F1E5
:101188000203DBB2182B00F2928041F60004C4F28D
:10119800010420464FF4004105F0FAFF20464FF4C1
:1011A800007105F0F5FF20464FF4807105F0EEFF61
:1011B800A5F10205204605F0DBFFC0B248F2FC535A
:1011C800C2F200034FF09A0202FB053505F1200335
:1011D800187020464FF4004105F0DAFF20464FF41E
:1011E800007105F0D3FF20464FF4807105F0D0FF61
:1011F800204605F0BDFFC0B205F121031870204656
:101208004FF4004105F0C4FF20464FF4007105F08B
:10121800BDFF20464FF4807105F0B8FF204605F069
:10122800A7FFC0B205F12203187020464FF4004111
:1012380005F0ACFF20464FF4007105F0A9FF2046E9
:101248004FF4807105F0A4FF204605F091FFC0B26D
:1012580005F12303187020464FF4004105F096FF6E
:1012680020464FF4007105F093FF20464FF480713B
:1012780005F08CFF204605F07BFFC0B205F1240382
:10128800187020464FF4004105F080FF20464FF4C7
:10129800007105F07BFF20464FF4807105F078FF60
:1012A800204605F065FFC0B205F12505287038BD58
:1012B80008B54FF4805005F01FF890B34FF48050F4
:1012C80005F02AF842F64873C2F200031B7803F0CF
:1012D8001003DBB22BB3FFF735FF42F64873C2F2B7
:1012E80000035B78012B06D1FFF73EFC4FF46A70D0
:1012F800FFF7A6FE15E042F64873C2F200035B78DA
:10130800092B0ED942F64873C2F200035B780F2B03
:1013180007D842F20040C4F201004FF0010103F087
:10132800F3FC08BDF0B583B04FF43053ADF804308A
:101338004FF010078DF807704FF001058DF8065033
:1013480041F60004C4F2010401AE2046314605F01E
:101358009FFE20464FF4806105F01AFF20464FF4A7
:10136800006105F013FF20464FF4005105F010FF0F
:1013780048F20033ADF804308DF807708DF8065048
:101388002046314605F084FE20464FF4807105F072
:10139800FFFE20464FF4007105F0FAFE20464FF498
:1013A800004105F0F5FE4FF48043ADF804304FF0EE
:1013B80048078DF807708DF806502046314605F02D
:1013C80067FE4FF48053ADF804304FF004038DF8F6
:1013D80007308DF806502046314605F059FE4FF08B
:1013E800FF03ADF804308DF807708DF806502046DD
:1013F800314605F04DFE03B0F0BD00BF08B54FF013
:1014080041004FF0010106F079FC08BD30B585B008
:10141800FFF7F4FFFFF786FF4FF004004FF00C01D1
:1014280005F030FF4FF4805302934FF000058DF81C
:101438000C504FF008038DF80D304FF001048DF873
:101448000E400DEB030004F0E7FE4FF028038DF883
:1014580004304FF00F038DF805308DF806508DF8E5
:10146800074001A803F06AFB05B030BD10B582B093
:101478004FF00003019343F60000C4F2010040F26C
:10148800266108F027FB01282FD140F21C63C2F225
:10149800000318680DF1030101AA08F06DFF40B1BF
:1014A80043F60000C4F201009DF8031008F072FA38
:1014B8001BE043F60004C4F2010420464FF040014B
:1014C80008F002FB204640F226614FF0000208F0C7
:1014D800EDF920464FF0200108F0F6FA204640F2D8
:1014E80025514FF0010208F0E1F943F60000C4F27B
:1014F800010040F2255108F0EDFA012812D143F617
:101508000000C4F2010008F04BFA02A901F8050D29
:1015180040F21C63C2F20003D86801AA4FF000032E
:1015280009F058F8019B0BB108F06EFE02B010BD2F
:1015380010B582B0044602AB03F8011D40F21C61ED
:10154800C2F2000151F8200019464FF0000309F0DB
:101558006DF8012818BF00200DD14DF27803C0F6B0
:10156800000353F8240040F227714FF0010208F0FD
:101578009DF94FF0010002B010BD00BF2DE9F04702
:1015880081460D469046012814D143F60004C4F262
:101598000104204640F225514FF0000208F086F978
:1015A80020464FF0400108F08FFA2046297808F0CD
:1015B800F1F930E0022814D144F20044C4F20004E6
:1015C800204640F225514FF0000208F06FF92046FE
:1015D8004FF0400108F078FA2046297808F0DAF947
:1015E80019E0032844D144F60000C4F2000040F298
:1015F80025514FF0000208F059F939E044F600048B
:10160800C4F2000420464FF0400108F05DFA20467D
:10161800297808F0BFF918F1FF3817D005F101044F
:101628004FF0000640F21C67C2F2000709F1FF35CF
:10163800B24657F8250021465246534608F0F6FFB1
:1016480004F1010406F101064645F2D34DF2780390
:10165800C0F6000309F1FF3953F8290040F226616A
:101668004FF0010208F022F94FF00100BDE8F087C1
:10167800B9F1030FCFD1C1E72DE9F84F05468A46E6
:1016880090460228C8BF002034DC2AB34FF000047B
:1016980040F21C67C2F200074FF00506A1464DF262
:1016A800780BC0F6000B57F8250004EB0A01324608
:1016B8004B4608F0BBFF01280AD05BF8250040F232
:1016C80027714FF0010208F0F1F8304609F05AFC92
:1016D80004F10104A045E6D84DF27803C0F60003F2
:1016E80053F8250040F227714FF0010208F0DEF8A8
:1016F8004FF00100BDE8F88F08B50228C8BF0020E8
:101708000EDC40F21C63C2F2000303EB8000C068E9
:101718004FF0000308F09AFE012814BF00200120B2
:1017280008BD00BF2DE9F8450D4600F1FF3640F22F
:101738001C63C2F2000303EB8603D8684FF00A0269
:101748004FF0000308F082FE002836D02B787B2B60
:1017580033D105F1010540F21C63C2F2000303EB2B
:101768008603D86829464FF00A024FF0000308F0B4
:101778006DFE10B395F800A0AAF1020ABAF1000FA5
:101788001EDD05F101054FF0000440F21C63C2F2B2
:10179800000303EB86064FF00A07A046F0682946C7
:1017A8003A46434608F052FE38B104F10104E4B267
:1017B800544505DA05F10105F0E74FF0000001E0B6
:1017C8004FF00100BDE8F88508B54FF004004FF070
:1017D800010106F093FA4FF480404FF0010106F042
:1017E8008DFA08BD08B54FF010004FF0010106F062
:1017F80085FA4FF00100014606F080FA4FF4802088
:101808004FF0010106F08EFA08BD00BF08B54FF091
:1018180020004FF0010106F071FA4FF00100014677
:1018280006F06CFA4FF400304FF0010106F07AFA36
:1018380008BD00BF30B583B04FF48063ADF8043005
:101848004FF004038DF8073040F60004C4F2010499
:101858000DEB03052046294605F01AFC4FF40073EA
:10186800ADF804304FF003038DF806304FF018033D
:101878008DF807302046294605F00AFC03B030BD34
:1018880030B583B04FF40063ADF804304FF0040373
:101898008DF8073041F20004C4F201040DEB030592
:1018A8002046294605F0F4FB4FF48063ADF8043078
:1018B8004FF003038DF806304FF018038DF807300A
:1018C8002046294605F0E4FB40F21000C0F214005F
:1018D8004FF0010105F088FC03B030BD30B583B08E
:1018E8004FF04003ADF804304FF004038DF8073093
:1018F80041F20044C4F201040DEB030520462946D9
:1019080005F0C6FB4FF02003ADF804304FF0030399
:101918008DF806304FF018038DF807302046294619
:1019280005F0B6FB4FF008004FF0010105F05CFC34
:1019380003B030BD70B586B002904FF48052ADF858
:101948000C204FF00005ADF80E50ADF81050ADF872
:1019580014504FF00C02ADF812204FF00F028DF822
:1019680005208DF806504FF001068DF8076044F603
:101978000004C4F20004204602A908F0E3F8204657
:1019880040F225512A4607F091FF204640F2266191
:101998002A4607F08BFF06A84FF0270300F8143DEE
:1019A80003F0CCF82046314607F070FF20464FF090
:1019B800400108F089F806B070BD00BF70B586B068
:1019C80002904FF48052ADF80C204FF00005ADF8AE
:1019D8000E504FF48062ADF81020ADF814504FF05F
:1019E8000C02ADF812204FF00F028DF805208DF88B
:1019F80006504FF001068DF8076044F20044C4F227
:101A08000004204602A908F09DF8204640F225511E
:101A18002A4607F04BFF204640F226612A4607F087
:101A280045FF06A84FF0260300F8143D03F086F89A
:101A38002046314607F02AFF20464FF0400108F0C3
:101A480043F806B070BD00BF30B587B002904FF0C4
:101A580000031D46ADF80C30ADF80E30ADF810306F
:101A6800ADF814304FF00C03ADF8123043F6000413
:101A7800C4F20104204602A908F064F84FF02503D7
:101A88008DF804304FF00F038DF805308DF80650AF
:101A98004FF001058DF8075001A803F04FF82046D4
:101AA80040F225512A4607F001FF204640F2266100
:101AB8002A4607F0FBFE2046294607F0E7FE2046A7
:101AC8004FF0400108F000F807B030BDF8B5044603
:101AD8000E46022846D8002844D000F1FF374FF4BC
:101AE800FA604FF0010108F03DFE40F21C65C2F2B9
:101AF800000545F827004FF064004FF0010108F099
:101B080031FE05EB8705E860012C13D1FFF75CFE79
:101B1800FFF790FE3046FFF797FF43F60000C4F248
:101B2800010040F225514FF0010207F0BFFE4FF0CF
:101B3800010019E0022C09D1FFF768FEFFF7CEFE7D
:101B48003046FFF73BFF4FF001000DE0032C09D1B1
:101B5800FFF748FEFFF794FE3046FFF7EBFE4FF025
:101B6800010001E04FF00000F8BD00BF00000000D8
:101B780010B44478A4F1030CBCF1000FD8BF0022C4
:101B88000CDD4FF00002134603EB000149780A44CC
:101B9800D2B203F10103DBB26345F5DB04EB0003CA
:101BA80013F8023C93423BD104EB000111F8013CCD
:101BB8007D2B35D1C37813B9062C0AD12DE0012B22
:101BC80002D1062C0AD128E0022B02D1062C0AD118
:101BD80023E0032B02D1072C0AD11EE0042B02D1EB
:101BE800072C0CD119E0052B02D1062C0ED114E0DC
:101BF800062B04D1072C14BF0020012012E0072B6C
:101C080004D1062C14BF002001200BE0082B07D1BB
:101C1800062C14BF0020012004E04FF0010001E071
:101C28004FF0000010BC704703460A4611B94FF048
:101C380000000AE04FF00000014613F801C06044BC
:101C4800C0B201F101018A42F7D8704700B585B0EA
:101C580000904FF0000301930293039343F6810031
:101C6800C0F600004EF69401C0F600014FF4007271
:101C780009F0FCF905B000BD2DE9F0410C4603461A
:101C880013F8042F022A5AD84AF6C835C2F20005BA
:101C980005EB82254FF000010E460F46B5F800C04F
:101CA8000FFA8CFEB645C4BF1FFA8CF6CFB201F10D
:101CB800010105F10205B1F5007FEFD14FF07B017D
:101CC8002170A0464FF0300108F8011F8178A170FB
:101CD800C178E1701B78237167714FF014014FF0E0
:101CE80000034AF6C835C2F200054FEA422003F164
:101CF800030C4FEA4C0C03F1010307FB030235F810
:101D080012E004F80CE00CEB040635F912204FEA57
:101D18002222727011F1FF31E9D140464FF02D01B6
:101D2800FFF782FF84F82E004FF07D0384F82F30F0
:101D38004FF0010021464FF03002FFF71FFCBDE8CD
:101D4800F08100BF70B50C46034613F8042F082A2B
:101D580037D84FF07B01217026466FF0300106F826
:101D6800011F8178A170C178E1701B7823714FF051
:101D7800000343F65C35C2F200054FF47A7101FBAB
:101D880002F202EB030135F811C004EB0301CCF3B6
:101D98000B1C81F805C003F10103C82BF1D13046B3
:101DA8004FF0CC01FFF740FF84F8CD004FF07D03E2
:101DB80084F8CE304FF0010021464FF0CF02FFF7F4
:101DC800DDFB70BD70B50C4616464FF07B030B70FB
:101DD8000D464FF0060305F8013F83788B70C378F2
:101DE800CB7028464FF00301FFF71EFF20714FF01C
:101DF8007D0363712A7832604FF001002146FFF7B6
:101E0800BDFB70BD70B54FF0000C48F2FC55C2F236
:101E180000054FF09A0606FB0C5303F1080393F8EC
:101E280002E0DC784EEA042E1C7983F804E05C7941
:101E38004FEA1E2E83F805E00CF1010CBCF1100FDF
:101E4800E9D1FFF7BFFF70BD70B50C4616464FF0DD
:101E58007B030B700D464FF0070305F8013F8378AD
:101E68008B70C378CB7042F64873C2F200031B78BC
:101E78000B7128464FF00401FFF7D6FE60714FF052
:101E88007D03A3712A7832604FF001002146FFF7E5
:101E980075FB70BD2DE9F04FC5B082460C461D920A
:101EA80048F2FC55C2F2000595F85C3995F85D29B1
:101EB80043EA022395F85E2943EA024395F85F094D
:101EC80095F8302095F8316042EA062695F83220D8
:101ED80046EA024695F8332046EA026643EA00607D
:101EE80009F07AFC80468946304609F075FC0246BE
:101EF8000B464046494609F00FFEE1A3D3E900230B
:101F080009F0E0FC4FF0000240F20003C4F259036C
:101F180009F0D8FC09F070FFADF80C0195F86039AC
:101F280095F8612943EA022395F8622943EA0243B6
:101F380095F8630995F8302095F8316042EA06264D
:101F480095F8322046EA024695F8332046EA0266BA
:101F580043EA006009F040FC80468946304609F0B3
:101F68003BFC02460B464046494609F0D5FDC4A352
:101F7800D3E9002309F0A6FC4FF0000240F2000369
:101F8800C4F2590309F09EFC09F036FFADF80801C8
:101F980095F85C3995F85D2943EA022395F85E299E
:101FA80043EA024395F85F0995F8302095F83160C7
:101FB80042EA062695F8322046EA024695F833208A
:101FC80046EA026643EA006009F006FC8046894654
:101FD800304609F001FC02460B464046494609F0E6
:101FE8009BFDA7A3D3E9002309F06CFC4FF0000286
:101FF80040F20003C4F2590309F064FC09F0FCFE46
:10200800ADF8040195F8F63995F8F72943EA022363
:1020180095F8F82943EA024395F8F90995F830202C
:1020280095F8316042EA062695F8322046EA0246DB
:1020380095F8332046EA026643EA006009F0CCFBD3
:1020480080468946304609F0C7FB02460B464046A3
:10205800494609F061FD8AA3D3E9002309F032FC5F
:102068004FF0000240F20003C4F2590309F02AFCC1
:1020780009F0C2FEADF8000195F8FA3995F8FB2988
:1020880043EA022395F8FC2943EA024395F8FD093F
:1020980095F8302095F8316042EA062695F8322006
:1020A80046EA024695F8332046EA026643EA0060AB
:1020B80009F092FB80468946304609F08DFB0246BE
:1020C8000B464046494609F027FD6DA3D3E9002396
:1020D80009F0F8FB4FF0000240F20003C4F2590384
:1020E80009F0F0FB09F088FEADF8FC0095F8F63928
:1020F80095F8F72943EA022395F8F82943EA0243B9
:1021080095F8F90995F8302095F8316042EA0626E5
:1021180095F8322046EA024695F8332046EA0266E8
:1021280043EA006009F058FB80468946304609F0CA
:1021380053FB02460B464046494609F0EDFC50A3C6
:10214800D3E9002309F0BEFB4FF0000240F2000380
:10215800C4F2590309F0B6FB09F04EFEADF8F800D9
:1021680095F8903A95F8912A43EA022395F8922A2D
:1021780043EA024395F8930A95F8CA2095F8CB608C
:1021880042EA062695F8CC2046EA024695F8CD2084
:1021980046EA026643EA006009F01EFB804689466B
:1021A800304609F019FB02460B464046494609F0FD
:1021B800B3FC33A3D3E9002309F084FB4FF00002FA
:1021C80040F20003C4F2590309F07CFB09F014FE45
:1021D800ADF8F40095F8943A95F8952A43EA022365
:1021E80095F8962A43EA024395F8970A95F8CA2083
:1021F80095F8CB6042EA062695F8CC2046EA0246D6
:1022080095F8CD2046EA026643EA006009F0E4FA50
:1022180080468946304609F0DFFA02460B464046BA
:10222800494609F079FC16A3D3E9002309F04AFBD3
:102238004FF0000240F20003C4F2590309F042FBD8
:1022480009F0DAFDADF8F00095F8903A95F8912A82
:1022580043EA022395F8922A43EA024395F8930A3F
:1022680095F8CA2095F8CB6042EA062695F8CC2066
:1022780046EA024695F8CD2046EA026604E000BF29
:10228800000000000080764043EA006009F0A4FAEC
:1022980080468946304609F09FFA02460B4640467A
:1022A800494609F039FCE2A3D3E9002309F00AFB07
:1022B8004FF0000240F20003C4F2590309F002FB98
:1022C80009F09AFDADF8EC0095F82A3B95F82B2B10
:1022D80043EA022395F82C2B43EA024395F82D0B89
:1022E80095F8FE2195F8FF6142EA062695F8002246
:1022F80046EA024695F8012246EA026643EA006089
:1023080009F06AFA80468946304609F065FA0246BD
:102318000B464046494609F0FFFBC5A3D3E9002315
:1023280009F0D0FA4FF0000240F20003C4F259035A
:1023380009F0C8FA09F060FDADF8E80095F82E3B01
:1023480095F82F2B43EA022395F8302B43EA0243F2
:1023580095F8310B95F8FE2195F8FF6142EA0626BB
:1023680095F8002246EA024695F8012246EA0266F6
:1023780043EA006009F030FA80468946304609F0A1
:102388002BFA02460B464046494609F0C5FBA8A36E
:10239800D3E9002309F096FA4FF0000240F2000357
:1023A800C4F2590309F08EFA09F026FDADF8E400ED
:1023B80095F82A3B95F82B2B43EA022395F82C2B0A
:1023C80043EA024395F82D0B95F8FE2195F8FF6135
:1023D80042EA062695F8002246EA024695F80122C6
:1023E80046EA026643EA006009F0F6F98046894643
:1023F800304609F0F1F902460B464046494609F0D5
:102408008BFB8BA3D3E9002309F05CFA4FF00002A1
:1024180040F20003C4F2590309F054FA09F0ECFC45
:10242800ADF8E00095F8C43B95F8C52B43EA0223C4
:1024380095F8C62B43EA024395F8C70B95F8FE2199
:1024480095F8FF6142EA062695F8002246EA024618
:1024580095F8012246EA026643EA006009F0BCF9F1
:1024680080468946304609F0B7F902460B46404691
:10247800494609F051FB6EA3D3E9002309F022FA7B
:102488004FF0000240F20003C4F2590309F01AFAAF
:1024980009F0B2FCADF8DC0095F8C83B95F8C92BFB
:1024A80043EA022395F8CA2B43EA024395F8CB0B7B
:1024B80095F8FE2195F8FF6142EA062695F8002274
:1024C80046EA024695F8012246EA026643EA0060B7
:1024D80009F082F980468946304609F07DF90246BE
:1024E8000B464046494609F017FB51A3D3E90023A0
:1024F80009F0E8F94FF0000240F20003C4F2590372
:1025080009F0E0F909F078FCADF8D80095F8C43B7B
:1025180095F8C52B43EA022395F8C62B43EA0243F4
:1025280095F8C70B95F8FE2195F8FF6142EA062653
:1025380095F8002246EA024695F8012246EA026624
:1025480043EA006009F048F980468946304609F0B8
:1025580043F902460B464046494609F0DDFA34A3E2
:10256800D3E9002309F0AEF94FF0000240F200036E
:10257800C4F2590309F0A6F909F03EFCADF8D400FD
:1025880095F85E3C95F85F2C43EA022395F8602C99
:1025980043EA024395F8610C95F8322395F8331312
:1025A80042EA012295F8341342EA014295F835537C
:1025B80042EA056543EA006009F00EF906460F464F
:1025C800284609F009F902460B463046394609F013
:1025D800A3FA17A3D3E9002309F074F94FF0000216
:1025E80040F20003C4F2590309F06CF909F004FC45
:1025F800ADF8D00048F2FC55C2F2000595F8623CEF
:1026080095F8632C43EA022395F8642C43EA0243C5
:1026180095F8650C95F8322395F8336342EA062657
:1026280095F8342346EA024606E000BFAFF300807F
:10263800000000000080764095F8352346EA0266DF
:1026480043EA006009F0C8F880468946304609F038
:10265800C3F802460B464046494609F05DFAE2A334
:10266800D3E9002309F02EF94FF0000240F20003ED
:10267800C4F2590309F026F909F0BEFBADF8CC0005
:1026880095F85E3C95F85F2C43EA022395F8602C98
:1026980043EA024395F8610C95F8322395F83363C1
:1026A80042EA062695F8342346EA024695F8352389
:1026B80046EA026643EA006009F08EF880468946D9
:1026C800304609F089F802460B464046494609F06B
:1026D80023FAC5A3D3E9002309F0F4F84FF0000268
:1026E80040F20003C4F2590309F0ECF809F084FB46
:1026F800ADF8C80095F8F83C95F8F92C43EA0223A0
:1027080095F8FA2C43EA024395F8FB0C95F8FE215C
:1027180095F8FF6142EA062695F8002246EA024645
:1027280095F8012246EA026643EA006009F054F887
:1027380080468946304609F04FF802460B46404627
:10274800494609F0E9F9A8A3D3E9002309F0BAF842
:102758004FF0000240F20003C4F2590309F0B2F846
:1027680009F04AFBADF8C40095F8FC3C95F8FD2C3F
:1027780043EA022395F8FE2C43EA024395F8FF0C3E
:1027880095F8FE2195F8FF6142EA062695F80022A1
:1027980046EA024695F8012246EA026643EA0060E4
:1027A80009F01AF880468946304609F015F80246BD
:1027B8000B464046494609F0AFF98BA3D3E90023FD
:1027C80009F080F84FF0000240F20003C4F2590308
:1027D80009F078F809F010FBADF8C00095F8F83C5E
:1027E80095F8F92C43EA022395F8FA2C43EA0243B8
:1027F80095F8FB0C95F8FE2195F8FF6142EA06264C
:1028080095F8002246EA024695F8012246EA026651
:1028180043EA006008F0E0FF80468946304608F049
:10282800DBFF02460B464046494609F075F96EA3A0
:10283800D3E9002309F046F84FF0000240F2000304
:10284800C4F2590309F03EF809F0D6FAADF8BC0015
:1028580095F8923D95F8932D43EA022395F8942D27
:1028680043EA024395F8950D95F8322395F83363BA
:1028780042EA062695F8342346EA024695F83523B7
:1028880046EA026643EA006008F0A6FF80468946E9
:10289800304608F0A1FF02460B464046494609F07B
:1028A8003BF951A3D3E9002309F00CF84FF00002DB
:1028B80040F20003C4F2590309F004F809F09CFA45
:1028C800ADF8B80095F8963D95F8972D43EA0223A0
:1028D80095F8982D43EA024395F8990D95F8322317
:1028E80095F8336342EA062695F8342346EA024609
:1028F80095F8352346EA026643EA006008F06CFF63
:1029080080468946304608F067FF02460B46404637
:10291800494609F001F934A3D3E9002308F0D2FFAE
:102928004FF0000240F20003C4F2590308F0CAFF56
:1029380009F062FAADF8B40095F8923D95F8932D38
:1029480043EA022395F8942D43EA024395F8950D3E
:1029580095F8322395F8336342EA062695F834232E
:1029680046EA024695F8352346EA026643EA0060DD
:1029780008F032FF80468946304608F02DFF0246AF
:102988000B464046494609F0C7F817A3D3E9002388
:1029980008F098FF4FF0000240F20003C4F2590318
:1029A80008F090FF09F028FAADF8B00095F82C3E31
:1029B80095F82D2E43EA022395F82E2E43EA02437A
:1029C80095F82F0E95F8662495F8676442EA06266E
:1029D80095F8682446EA024695F8692446EA0266AC
:1029E80006E000BFAFF300800000000000807640E2
:1029F80043EA006008F0F0FE80468946304608F059
:102A0800EBFE02460B464046494609F085F8E2A32C
:102A1800D3E9002308F056FF4FF0000240F200030C
:102A2800C4F2590308F04EFF09F0E6F9ADF8AC001E
:102A380095F8303E95F8312E43EA022395F8322E68
:102A480043EA024395F8330E95F8662495F86764CF
:102A580042EA062695F8682446EA024695F869246B
:102A680046EA026643EA006008F0B6FE80468946F8
:102A7800304608F0B1FE02460B464046494609F08A
:102A88004BF8C5A3D3E9002308F01CFF4FF0000260
:102A980040F20003C4F2590308F014FF09F0ACF93E
:102AA800ADF8A80095F82C3E95F82D2E43EA0223A0
:102AB80095F82E2E43EA024395F82F0E95F86624D2
:102AC80095F8676442EA062695F8682446EA0246BD
:102AD80095F8692446EA026643EA006008F07CFE3D
:102AE80080468946304608F077FE02460B46404647
:102AF800494609F011F8A8A3D3E9002308F0E2FE3B
:102B08004FF0000240F20003C4F2590308F0DAFE65
:102B180009F072F9ADF8A40095F8C63E95F8C72EED
:102B280043EA022395F8C82E43EA024395F8C90EF2
:102B380095F89A2595F89B6542EA062695F89C250E
:102B480046EA024695F89D2546EA026643EA006091
:102B580008F042FE80468946304608F03DFE0246AF
:102B68000B464046494608F0D7FF8BA3D3E900231C
:102B780008F0A8FE4FF0000240F20003C4F2590327
:102B880008F0A0FE09F038F9ADF8A00095F8CA3EA3
:102B980095F8CB2E43EA022395F8CC2E43EA02435C
:102BA80095F8CD0E95F89A2595F89B6542EA062684
:102BB80095F89C2546EA024695F89D2546EA026660
:102BC80043EA006008F008FE80468946304608F06F
:102BD80003FE02460B464046494608F09DFF6EA399
:102BE800D3E9002308F06EFE4FF0000240F2000324
:102BF800C4F2590308F066FE09F0FEF8ADF89C002F
:102C080095F8C63E95F8C72E43EA022395F8C82ED4
:102C180043EA024395F8C90E95F89A2595F89B65FD
:102C280042EA062695F89C2546EA024695F89D252F
:102C380046EA026643EA006008F0CEFD804689460F
:102C4800304608F0C9FD02460B464046494608F0A2
:102C580063FF51A3D3E9002308F034FE4FF00002CC
:102C680040F20003C4F2590308F02CFE09F0C4F83E
:102C7800ADF8980095F8663095F8672043EA022386
:102C880095F8682043EA024395F8690095F83020E2
:102C980095F8316042EA062695F8322046EA02465F
:102CA80095F8332046EA026643EA006008F094FD8E
:102CB80080468946304608F08FFD02460B4640465E
:102CC800494608F029FF34A3D3E9002308F0FAFDA8
:102CD8004FF0000240F20003C4F2590308F0F2FD7D
:102CE80009F08AF8ADF8940095F8003195F80121BB
:102CF80043EA022395F8022143EA024395F80301C7
:102D080095F8CA2095F8CB1042EA012295F8CC1024
:102D180042EA014295F8CD5042EA056543EA00606F
:102D280008F05AFD06460F46284608F055FD0246AB
:102D38000B463046394608F0EFFE17A3D3E90023C7
:102D480008F0C0FD4FF0000240F20003C4F259033E
:102D580008F0B8FD09F050F8ADF8900048F2FC55BD
:102D6800C2F2000595F89A3195F89B2143EA0223AF
:102D780095F89C2143EA024395F89D0195F8642152
:102D880095F8656142EA062695F8662146EA024604
:102D980006E000BFAFF3008000000000008076402E
:102DA80095F8672146EA026643EA006008F014FDD8
:102DB80080468946304608F00FFD02460B464046DD
:102DC800494608F0A9FED8A3D3E9002308F07AFD04
:102DD8004FF0000240F20003C4F2590308F072FDFC
:102DE80009F00AF8ADF88C0095F8343295F83522D8
:102DF80043EA022395F8362243EA024395F837025C
:102E080095F8FE2195F8FF6142EA062695F800221A
:102E180046EA024695F8012246EA026643EA00605D
:102E280008F0DAFC80468946304608F0D5FC0246B0
:102E38000B464046494608F06FFEBBA3D3E9002382
:102E480008F040FD4FF0000240F20003C4F25903BD
:102E580008F038FD08F0D0FFADF8880095F8683321
:102E680095F8692343EA022395F86A2343EA024363
:102E780095F86B0395F8322395F8336342EA0626F2
:102E880095F8342346EA024695F8352346EA026661
:102E980043EA006008F0A0FC80468946304608F006
:102EA8009BFC02460B464046494608F035FE9EA369
:102EB800D3E9002308F006FD4FF0000240F20003BA
:102EC800C4F2590308F0FEFC08F096FFADF8840040
:102ED80095F89C3495F89D2443EA022395F89E249E
:102EE80043EA024395F89F0495F8662495F86764C9
:102EF80042EA062695F8682446EA024695F86924C7
:102F080046EA026643EA006008F066FC80468946A5
:102F1800304608F061FC02460B464046494608F038
:102F2800FBFD81A3D3E9002308F0CCFC4FF000029D
:102F380040F20003C4F2590308F0C4FC08F05CFF37
:102F4800ADF8800095F8D03595F8D12543EA0223ED
:102F580095F8D22543EA024395F8D30595F89A25C2
:102F680095F89B6542EA062695F89C2546EA0246AE
:102F780095F89D2546EA026643EA006008F02CFCB5
:102F880080468946304608F027FC02460B464046F4
:102F9800494608F0C1FD64A3D3E9002308F092FC78
:102FA8004FF0000240F20003C4F2590308F08AFC13
:102FB80008F022FFADF87C0095F8043795F805274E
:102FC80043EA022395F8062743EA024395F80707E0
:102FD80095F8CE2695F8CF6642EA062695F8D026CB
:102FE80046EA024695F8D12646EA026643EA0060B8
:102FF80008F0F2FB80468946304608F0EDFB0246B1
:103008000B464046494608F087FD47A3D3E900230D
:1030180008F058FC4FF0000240F20003C4F25903D4
:1030280008F050FC08F0E8FEADF878004FF07B039C
:10303800237026464FF0520306F8013F9AF80230F3
:10304800A3709AF80330E3709DF80C3123719DF852
:103058000D3163719DF80831A3719DF80931E37151
:103068009DF8043123729DF8053163729DF8003193
:10307800A3729DF80131E3729DF8FC3023739DF82B
:10308800FD3063739DF8F830A3739DF8F930E3734E
:103098009DF8F43023749DF8F53063749DF8F03092
:1030A800A3749DF8F130E3749DF8EC3023759DF816
:1030B800ED306375A1469DF8E83009F8163FA24641
:1030C8009DF8E9300AF8173FA0469DF8E43008F863
:1030D800183FA6469DF8E5300EF8193FA4469DF81E
:1030E800E0300CF81A3F27469DF8E13007F81B3FFF
:1030F80020469DF8DC3000F81C3F21469DF8DD3065
:1031080001F81D3F22469DF8D83002F81E3F9DF871
:10311800D9B0234603F81FBF01939DF8D4B02346C6
:1031280003F820BF04E000BF0000000000807640E4
:103138000A939DF8D5B0234603F821BF09939DF85B
:10314800D0B0234603F822BF08939DF8D1B0234698
:1031580003F823BF07939DF8CCB0234603F824BF98
:1031680006939DF8CDB0234603F825BF05939DF837
:10317800C8B0234603F826BF04939DF8C9B0234678
:1031880003F827BF03939DF8C4B0234603F828BF6C
:103198001C939DF8C5B0234603F829BF1B939DF8DF
:1031A800C0B0234603F82ABF1A939DF8C1B023463E
:1031B80003F82BBF19939DF8BCB0234603F82CBF26
:1031C80018939DF8BDB0234603F82DBF17939DF8BB
:1031D800B8B0234603F82EBF16939DF8B9B023461E
:1031E80003F82FBF15939DF8B4B0234603F830BFFA
:1031F80014939DF8B5B0234603F831BF13939DF897
:10320800B0B0234603F832BF12939DF8B1B02346FD
:1032180003F833BF11939DF8ACB0234603F834BFCD
:1032280010939DF8ADB0234603F835BF0F939DF872
:10323800A8B0234603F836BF0E939DF8A9B02346DD
:1032480003F837BF0D939DF8A4B0234603F838BFA1
:103258000C939DF8A5B0234603F839BF0B9395F856
:10326800DEB195F8DF514BEA0525B5F5806F21D21F
:103278004FF0000589F800508AF8005088F800508F
:103288008EF800508CF800503D7005700D70157068
:10329800019B1D700A9B1D70099B1D701C9B1D7056
:1032A8001B9B1D701A9B1D70199B1D70189B1D7010
:1032B800179B1D7048F2FC55C2F2000595F812B331
:1032C80095F813534BEA0525B5F5806F24D24FF0D6
:1032D800000589F800508AF8005088F800508EF8E8
:1032E80000508CF800503D70089B1D70079B1D70A6
:1032F800069B1D70059B1D70049B1D70039B1D7014
:10330800169B1D70159B1D70149B1D70139B1D70C3
:10331800129B1D70119B1D7048F2FC55C2F20005EE
:1033280095F846C495F847E44CEA0E2CBCF5806F36
:1033380034D24FF0000C80F800C081F800C082F849
:1033480000C0019B83F800C00A9B83F800C0099B5A
:1033580083F800C0089B83F800C0079B83F800C06F
:10336800069B83F800C0059B83F800C0049B83F884
:1033780000C0039B83F800C0109B83F800C00F9B1C
:1033880083F800C00E9B83F800C00D9B83F800C033
:103398000C9B83F800C00B9B83F800C0A4469DF8E3
:1033A800A0300CF83A3F27469DF8A13007F83B3F7C
:1033B80025469DF89C3005F83C3F20469DF89D30F9
:1033C80000F83D3F21469DF8983001F83E3F2246DF
:1033D8009DF8993002F83F3F48F2FC53C2F20003CF
:1033E80093F87AE593F87B354EEA0323B3F5806FBB
:1033F8000CD348F2FC53C2F2000393F8AEE693F8FC
:10340800AF364EEA0323B3F5806F08D24FF00003BE
:103418008CF800303B702B7003700B7013709DF8A4
:10342800943084F840309DF8953084F841309DF808
:10343800903084F842309DF8913084F843309DF8FC
:103448008C3084F844309DF88D3084F845309DF8F0
:10345800883084F846309DF8893084F847309DF8E4
:10346800843084F848309DF8853084F849309DF8D8
:10347800803084F84A309DF8813084F84B309DF8CC
:103488007C3084F84C309DF87D3084F84D309DF8C0
:10349800783084F84E309DF8793084F84F303046D3
:1034A8004FF04F01FEF7C0FB84F850004FF07D034A
:1034B80084F8513032781D9B1A604FF00100214684
:1034C800FEF75CF845B0BDE8F08F00BFF8B50C46D4
:1034D8001646034613F8042F0E2A00F28C819446F0
:1034E80048F2FC51C2F200014FF09A0E0EFB021195
:1034F8000D4615F820EF6D784EEA052E4FEA5E0E60
:1035080001F118073D7987F804E07D794FEA1E2E0E
:1035180087F805E04FF07B0E84F800E025464FF071
:103528003F0E05F801EF90F802E084F802E0C07859
:10353800E0701B78237101F11C031B78637101F1A2
:103548001D031B78A37101F10C031B78E37101F1D2
:103558000D031B78237201F10E031B78637201F1CE
:103568000F031B78A372084610F8103FE37201F1AD
:1035780011031B78237301F112031B78637301F1A4
:1035880013031B78A37301F114031B78E37301F190
:1035980015031B78237401F116031B78637401F17A
:1035A80017031B78A3743B78E37401F119031B78A4
:1035B800237501F11A031B78637501F11B031B784E
:1035C800A37501F122031B78E37501F123031B782E
:1035D800237601F124031B78637601F125010B782A
:1035E800A3760378417843EA0123B3F5806F3BD291
:1035F800022A39D94FF00003E37623776377A3775C
:10360800E37784F8203084F8213084F8223084F875
:10361800233084F8243084F8253084F8263084F860
:10362800273084F8283084F8293084F82A3084F840
:103638002B3084F82C3084F82D3084F82E3084F820
:103648002F3084F8303084F8313084F8323084F800
:10365800333084F8343084F8353084F8363084F8E0
:10366800373084F8383098E048F2FC53C2F200034F
:103678004FF09A0202FB0C3303F128021278E2762B
:1036880003F129021278227703F12A02127862776D
:1036980003F12B021278A27703F12C021278E27759
:1036A80003F12D02127884F8202003F12E021278FB
:1036B80084F8212003F12F02127884F8222003F1E4
:1036C8003002127884F8232003F13102127884F84A
:1036D800242003F13202127884F8252003F1330202
:1036E800127884F8262003F13802127884F827200B
:1036F80003F13902127884F8282003F13A0212788B
:1037080084F8292003F13B02127884F82A2003F177
:103718003C02127884F82B2003F13D02127884F8D9
:103728002C2003F13E02127884F82D2003F13F0289
:10373800127884F82E2003F14002127884F82F20A2
:1037480003F14102127884F8302003F14202127822
:1037580084F8312003F14302127884F8322003F10F
:103768004C02127884F8332003F14D02127884F861
:10377800342003F14E02127884F8352003F14F0209
:10378800127884F8362003F15002127884F8372032
:1037980003F151031B7884F8383048F2FC52C2F226
:1037A80000024FF09A0303FB0C2303F16A0212781C
:1037B80084F8392003F16B02127884F83A2003F177
:1037C8006C02127884F83B2003F16D031B7884F8AF
:1037D8003C3028464FF03C01FEF726FA84F83D00BD
:1037E8004FF07D0384F83E302A7832604FF00100B4
:1037F8002146FDF7C3FEF8BD00B583B0C378082B9A
:1038080037D8DFE803F005181C2024282C303400B2
:1038180001AAFEF7D7FA4FF00A0007F0B3FB48F207
:10382800F853C2F2000318684FF000010A460B462D
:1038380006F0FCFE1DE001AAFEF7C4FA19E001AA91
:10384800FEF702FB15E001AAFFF740FE11E001AA0E
:10385800FEF778FA0DE001AAFEF71CFB09E001AAC1
:10386800FEF70AFA05E001AAFEF7CCFA01E000F03B
:1038780055FC03B000BD00BF70B548F2AC14C2F2ED
:1038880000044FF0010548F21026C2F2000628464F
:103898002146FDF747FF0128F9D12046FEF768F9D0
:1038A8000128F4D120463146FFF7A6FFEFE700BF15
:1038B80008B540F60040C4F201004FF4805103F00F
:1038C8005BFC40B940F60040C4F201004FF480515F
:1038D80003F05CFC07E040F60040C4F201004FF43E
:1038E800805103F055FC08BD10B582B04FF00800B8
:1038F8004FF0010104F002FA4FF44053ADF80430E0
:103908004FF010038DF807304FF002038DF80630A2
:1039180040F60044C4F20104204601A903F0B8FBB4
:1039280020464FF4805103F031FC20464FF40051FB
:1039380003F02CFC02B010BD2DE9F84F06460C46EA
:1039480048F2FC53C2F200034FF09A0202FB013323
:1039580003F120031B889BB2032B5CD848F2FC536D
:10396800C2F2000302FB013303F11803DB889BB2A8
:10397800012B1DD140F23463C2F20003186020F01D
:10398800004648F2FC52C2F200024FF09A0505FBCD
:10399800012454F8683F9BB243EA064323606368F6
:1039A8004FEA13434FEA034343EA16466660FBE2D5
:1039B80048F2FC53C2F200034FF09A0202FB0133B3
:1039C80003F11803DB889BB2022B40F0ED8240F232
:1039D8003463C2F200031B6823F000430F2B00F28C
:1039E800E38220F00046C3EB060348F2FC51C2F222
:1039F8000001154602FB041454F8682F92B242EAFB
:103A08000342226062684FEA12424FEA024242EAE7
:103A180013436360C8E248F2FC53C2F200034FF05C
:103A28009A0202FB013303F11803DB889BB2012BD6
:103A380023D140F23463C2F2000318600028C0F2B8
:103A4800B38220F00046012E00F0AE8248F2FC530B
:103A5800C2F20003154602FB013404F160046368F6
:103A68009BB243EA06436360A3684FEA13434FEAF5
:103A7800034343EA1646A66096E248F2FC53C2F2B4
:103A880000034FF09A0202FB013303F11803DB88AD
:103A98009BB2022B21D140F23463C2F2000358607A
:103AA8000028C0F2818220F0004648F2FC52C2F29F
:103AB80000024FF09A0505FB012404F160046368D5
:103AC8009BB243EA06436360A3684FEA13434FEA95
:103AD800034343EA1646A66066E248F2FC53C2F284
:103AE80000034FF09A0202FB013303F11803DB884D
:103AF8009BB2032B2BD140F23463C2F200039860CF
:103B08000028C0F2518240F23463C2F200031B68FD
:103B180023F00043012B40F0478220F0004648F292
:103B2800FC52C2F200024FF09A0303FB012404F195
:103B3800600463689BB243EA06436360A3684FEA84
:103B480013434FEA034343EA1646A6602CE248F2C1
:103B5800FC53C2F200034FF09A0202FB013303F157
:103B68001803DB8813F0010F40F0FB8148F2FC5387
:103B7800C2F2000302FB013303F11803DB889BB296
:103B8800032B40F2EE8140F23463C2F20003D860A6
:103B9800D3F80480C8EB0005284607F01DFE8246CE
:103BA8008B4617A1D1E9000152465B4607F0B4FFE6
:103BB8004FF0000240F20003C4F2590307F082FEFE
:103BC80008F01AF90746002E22DA26F0004640F2DD
:103BD8003463C2F200039B68C3EB0606304607F065
:103BE800FBFD52465B4607F097FF07A3D3E9002386
:103BF80007F068FE08F000F980B221E0AFF300801A
:103C080000000000D0128341000000000088C3407B
:103C180040F23463C2F200039E6826F00046C8EB07
:103C28000606304607F0D8FD52465B4607F074FF9B
:103C380097A3D3E9002307F045FE08F0DDF880B22A
:103C480048F2FC53C2F200034FF09A0202FB04331D
:103C580033F8282F92B25B8842EA03439D420AD97F
:103C680048F2FC53C2F200034FF09A0202FB0433FD
:103C780003F128031D6048F2FC53C2F200034FF021
:103C88009A0202FB043333F82C2F92B25B8842EA83
:103C980003439D420AD248F2FC53C2F200034FF09C
:103CA8009A0202FB043303F12C031D6048F2FC5313
:103CB800C2F200034FF09A0202FB0432134633F8B3
:103CC800341F89B2B3F802C041EA0C410D44198887
:103CD8001D8059884FEA15455D80134633F8382F03
:103CE80092B25B8842EA03439F420AD948F2FC53E6
:103CF800C2F200034FF09A0202FB043303F13803C7
:103D08001F6048F2FC53C2F200034FF09A0202FB14
:103D1800043333F83C2F92B25B8842EA03439F4254
:103D28000AD248F2FC53C2F200034FF09A0202FB97
:103D3800043303F13C031F6048F2FC53C2F2000352
:103D48004FF09A0202FB043202F14003998889B2CB
:103D5800B3F806C041EA0C48198989B2B3F80AC019
:103D680041EA0C4918EB070849F100099988A3F8BA
:103D78000480D9884FEA1841D9801989A3F8089096
:103D880059894FEA1941598102F1480293889BB237
:103D980098420AD948F2FC53C2F200034FF09A0243
:103DA80002FB043303F14803988048F2FC53C2F243
:103DB80000034FF09A0202FB043303F14803DB8847
:103DC8009BB298423FBF48F2FC53C2F2000302FB89
:103DD8000433483338BFD88048F2FC53C2F200039A
:103DE8004FF09A0202FB043303F150035A8892B24F
:103DF800998842EA014210445A8858809A884FEAC2
:103E080010409880DA8892B21B8942EA03439E42A6
:103E180016D948F2FC53C2F200034FF09A0202FB93
:103E2800043303F150035A6892B242EA06425A60D8
:103E38009A684FEA12424FEA024242EA16429A60F0
:103E480048F2FC53C2F200034FF09A0202FB04331B
:103E580003F158035A8892B29B8842EA03439E4270
:103E68001AD248F2FC53C2F200034FF09A0202FB46
:103E7800043353F8582F92B242EA06421A605A683D
:103E88004FEA12424FEA024242EA16425A6003E0FF
:103E9800000000000088C34048F2FC53C2F200034F
:103EA8004FF09A0505FB043505F1600463889BB261
:103EB800A28843EA02431E4463886680A3884FEAC7
:103EC8001646A68005F12006F38803F101039BB28C
:103ED800F3802B4633F8342F92B25B8842EA0342D0
:103EE800F3889BB2B2FBF3F205F130031A6005F1D7
:103EF80050035A8892B2998842EA0141F28892B2F4
:103F0800B1FBF2F292B21A8005F14007B88880B28C
:103F1800B7F806C03B899BB27989F28840EA0C4021
:103F280043EA014192B24FF0000308F059FA3860B1
:103F380063889BB2A28843EA0242F3889BB2B2FB31
:103F4800F3F205F158056B689BB243EA02436B60D4
:103F5800AB684FEA13434FEA034343EA1243AB60AB
:103F680022E048F2FC53C2F200034FF09A0202FB2F
:103F7800043303F11803DB8813F0010F14D048F25F
:103F8800FC53C2F20003154602FB043303F1180385
:103F9800DB889BB2032B81BF40F23463C2F200037B
:103FA800DA685A6088BF9E60BDE8F88F2DE9F00591
:103FB80042F64873C2F200031A786FF386121A7039
:103FC8004FF0000548F2FC57C2F200074FF09A087C
:103FD8002B4640F2000CCFF6FF7C4FF0FF3608FB73
:103FE800057202F10801CB80114621F8103F4B8081
:103FF8008B80CB80114621F8183F4B808B80CB807B
:10400800114621F8203F086880B20860486800EA35
:104018000C004860CB8002F16004616889B261607D
:10402800A16801EA0C01A160114651F8680F80B23D
:104038000860486800EA0C004860CB8002F19801EB
:104048000B8002F128010B6002F130010B6002F1D4
:104058002C010E60114631F8340F0B8048884B80D4
:1040680002F148008380114621F8503FC6804888F5
:104078004B8088888B8002F138000360104640F836
:10408800403F02F13C0ACAF80060B0F804A08380FF
:10409800B0F806A0C380B0F808A00381B0F80AA061
:1040A8004381486880B24860886800EA0C008860EC
:1040B80002F15802516889B25160916801EA0C0115
:1040C8009160116841EA0C01116051686FEA114171
:1040D8006FEA0141516062886380A288A38005F17C
:1040E80001051A2D7FF47BAFBDE8F005704700BFCE
:1040F80000B585B000904FF000030193029303933D
:1041080044F20550C0F600004EF6A401C0F60001C6
:104118004FF4007206F0AAFF05B000BD2DE9F84F74
:104128004FF0000B48F2FC58C2F200084FF00104AF
:104138004FF0020A4FF00A064FF004094FF09A03B5
:1041480003FB0BF707F12005454420462946524654
:10415800FDF714FA304606F015FF204605F1020176
:104168004A46FDF70BFA304606F00CFF07F1080542
:104178004544204605F106015246FDF7FFF9304651
:1041880006F000FF204605F102015246FDF7F6F958
:10419800304606F0F7FE07F19801204641445246A2
:1041A800FDF7ECF9304606F0EDFE07F170034344E5
:1041B80007EB080202F19802118889B201F1FF3178
:1041C800204603EB41015246FDF7D8F9304606F088
:1041D800D9FE07EB0801204601F166014A46FDF7C2
:1041E800CDF9304606F0CEFE07F1280545442046B5
:1041F80029464A46FDF7C2F9304606F0C3FE204676
:1042080005F104014A46FDF7B9F9304606F0BAFE51
:1042180007F13001204641444A46FDF7AFF94FF017
:10422800C80006F0AFFE0BF1010BBBF11A0F85D1E8
:104238004AF2A014C2F2000404F5226505F108054B
:104248004FF001064FF064074FF0C808304621468A
:104258003A46FDF793F9404606F094FE04F16404EB
:10426800AC42F3D14FF0000443F65C36C2F20006CC
:104278004FF001074FF0C80544F25068384604EB88
:1042880006012A46FDF77AF9284606F07BFE04F572
:10429800FA644445F2D14FF000044FF09A0648F210
:1042A800FC55C2F200054FF001074FF028084FF007
:1042B800C80A06FB0451384601F170014246FDF771
:1042C8005DF9504606F05EFE04F10104032CF0D1BE
:1042D8004AF6C834C2F2000404F540654FF00106FE
:1042E8004FF480674FF4FA78304621463A46FDF796
:1042F80045F9404606F046FE04F58064AC42F3D129
:1043080042F65074C2F2000404F5406505F10C054C
:104318004FF001064FF400774FF4FA783046214603
:104328003A46FDF72BF9404606F02CFE04F50074DA
:1043380004F10204AC42F1D1BDE8F88F10B541F6A2
:104348000004C4F2010420464FF4006102F01EFF8D
:1043580020464FF4806102F01BFF20464FF40051C5
:1043680002F016FF20464FF4005102F00FFF2046DE
:104378004FF4806102F00AFF20464FF4806102F09A
:1043880007FF42F64873C2F200031A7842F010029F
:104398001A7010BD2DE9F0474FF00006354649F276
:1043A800A057C2F2000743F65C34C2F200044FF48F
:1043B8007A7A48F2FC58C2F200084FF09A091DE0D8
:1043C8000EEB030134F81100BCF80410C1EB000136
:1043D80022F8021B03F10103B3F5007FF0D14AF67E
:1043E800C831C2F2000106EB0700314400F04CF975
:1043F80005F1010506F58066032D0AD007EB852235
:104408004FF000030AFB05FE09FB058101F1080CCA
:10441800D6E7BDE8F08700BF2DE9F04F83B04FF035
:1044280000040DF1040941F60007C4F2010740F247
:104438004006C2F2000648F2FC5AC2F2000A55E0F1
:104448003846414602F0A4FE384602F091FE09F8CB
:1044580005003846414602F099FE05F10105042D94
:10446800EED14FF000034FF09A0C99B21D4656F862
:104478002320A24231D80CFB03A000F120000088C1
:1044880080B202EB8002A24227D94FF09A0808FBBB
:1044980003A808F11808B8F8063003F101039BB225
:1044A800A8F80630DDF804B05846FFF745FAB8F822
:1044B80006309BB2182B14D84346DA8892B24AF2D7
:1044C800A013C2F2000305EB850505EB85052A4418
:1044D80002F1FF3243F822B003E003F101031A2B83
:1044E800C3D104F10404B4F5002F04D04FF0000543
:1044F8004FF40068A4E703B0BDE8F08F2DE9F84F4A
:1045080048F2F85AC2F2000A42F64878C2F20008A5
:104518004FF001094FF00A064FF4804741F60005B5
:10452800C4F201054FF0030BDAF800004FF0000168
:104538004FF0FF320B4605F089FFFFF737FDFFF715
:10454800FDFE98F8003069F3030388F800304FF057
:104558000004304606F016FD2846394602F002FEF1
:10456800012817D198F800306FF3041388F8003049
:10457800FFF752FFFCF794F9FFF70CFF98F80030AB
:104588004FF0020262F3030388F80030B4F5FA7FB3
:10459800CAD305E004F10104A4B2B4F5FA7FD8D176
:1045A80098F800306BF3030388F80030BCE700BFCD
:1045B8000346B0B14FF400414FF0000C4FF00F022A
:1045C80001EB4C0000FA02F002F1FF32834224BFF3
:1045D8008C44C0EB03034FEA5101B2F1FF3FEFD126
:1045E80063461846704700BF2DE9F84F07468B46CB
:1045F8004FF00008C146C2464DF28406C0F60006D8
:104608004DF28444C0F6000436E0995FF85E00FB82
:1046180001F04FEAE03002F180014FEAC1514FEA60
:10462800D15134F9111000FB01F10CEBE13C4FEAD8
:10463800C2514FEAD15134F9111000FB01F0AEEB31
:10464800E03E03F102032A44B3F5806FDDD14FEA5F
:10465800EC1C4FEAEE1E0EFB0EFE0CFB0CEC4FF0B2
:10466800640303FB0CF0FFF7A3FF2BF8150008F118
:104678000108B8F5807F05D045464A465346D646D8
:10468800D446C2E7BDE8F88F2DE9F04F85B0019018
:1046980003914FF0000302934DF6840BC0F6000B14
:1046A8004EF28408C0F600085DE0019B185F07F031
:1046B800CDFC5BF8141007F01DFD824605F1800360
:1046C8004FEAC3534FEAD35358F8231007F012FDAB
:1046D8000146384607F006FC07464FEAC5534FEA3D
:1046E800D353504658F8231007F004FD01463046CE
:1046F80007F0F6FB064604F102044D44B4F5806F5A
:10470800D3D138464FF06E5107F0F4FC05463046D9
:104718004FF06E5107F0EEFC04462846294607F094
:10472800E9FC05462046214607F0E4FC294607F047
:10473800D9FB40F20001C4F2C83107F0DBFC07F0F6
:104748006DF806F0B5FD4FEA490907F075FB07F06B
:1047580021FE039B23F80900029B03F10103029346
:10476800B3F5807F08D0DDF808904FF000052C469F
:104778004FF00006374698E705B0BDE8F08F00BF58
:1047880010B483B04FF000030193019B984215D9F0
:104798004FF0000441F25B720094009B934206D8EC
:1047A800009B03F101030093009B9342F8D9019BFE
:1047B80003F101030193019B8342EDD303B010BCC5
:1047C800704700BF82B04FF00003ADF80630BDF867
:1047D80006309BB2032B0BD8BDF8063003F101035A
:1047E8009BB2ADF80630BDF806309BB2032BF3D967
:1047F80002B0704782B04FF00003ADF80630BDF844
:1048080006309BB20B2B0BD8BDF8063003F1010321
:104818009BB2ADF80630BDF806309BB20B2BF3D92E
:1048280002B0704782B04FF00003ADF80630BDF813
:1048380006309BB2102B0BD8BDF8063003F10103EC
:104848009BB2ADF80630BDF806309BB2102BF3D9F9
:1048580002B0704782B04FF00003ADF80630BDF8E3
:1048680006309BB2152B0BD8BDF8063003F10103B7
:104878009BB2ADF80630BDF806309BB2152BF3D9C4
:1048880002B0704782B04FF00003ADF80630BDF8B3
:1048980006309BB21D2B0BD8BDF8063003F101037F
:1048A8009BB2ADF80630BDF806309BB21D2BF3D98C
:1048B80002B0704782B04FF00003ADF80630BDF883
:1048C80006309BB2984220D94FF00002ADF8042080
:1048D800BDF804309BB2282B0BD8BDF8043003F187
:1048E80001039BB2ADF80430BDF804309BB2282B0D
:1048F800F3D9BDF8063003F101039BB2ADF80630D9
:10490800BDF806309BB28342E0D302B0704700BFC7
:1049180030B40B4619B94FF0FF0C654616E04FF05E
:1049280000024FF0FF0C654640F2A404C2F20004F6
:10493800815C8CEA010114F801C085EA0C0C214461
:1049480091F8005102F101029A42F1D10CEB052CC9
:104958001FFA8CF030BC704730B40B4619B94FF0D1
:10496800FF0C654616E04FF000024FF0FF0C65465D
:1049780040F2A404C2F20004815C8CEA010114F83C
:1049880001C085EA0C0C214491F8005102F10102A2
:104998009A42F1D10CEB052C1FFA8CF030BC704711
:1049A80000EBD10001F007014FF0010303FA01F118
:1049B800037841EA03010170704700BF00EBD100A2
:1049C80001F007014FF0010303FA01F1037823EA2C
:1049D80001010170704700BF0028AFBF80B240429C
:1049E8004004400C704700BF10F4004F1EBF20F475
:1049F8000040404280B200B2704700BF81422EBFE3
:104A0800C0EB0100C0434018704700BF4FF00000E2
:104A1800704700BF4FF00000704700BF4FF0000024
:104A2800704700BF4FF00000704700BF4FF40053BD
:104A380053604FF0000070474FF00100704700BF0F
:104A48004FF00100704700BF40F24463C2F2000318
:104A58001B6843B940F24463C2F200034BF2C872C8
:104A6800C2F200021A6040F24463C2F200031868FE
:104A780001441960704700BF4FF000039847FEE7F4
:104A8800704700BFEFF309800046704780F309883C
:104A9800704700BFEFF308800046704780F308882E
:104AA800704700BFEFF31280704700BF80F3118892
:104AB800704700BFEFF31080704700BF80F3108885
:104AC800704700BFEFF31380704700BF80F313886F
:104AD800704700BFEFF31480704700BF80F314885D
:104AE800704700BF00BA704740BA7047C0BA7047F5
:104AF80090FAA0F0704700BFD0E84F0FC0B27047DF
:104B0800D0E85F0F80B2704750E8000F704700BFD1
:104B1800C1E8400F704700BFC1E8500F704700BFA1
:104B280041E80000704700BF40F0BE6040F420201C
:104B38004EF60053CEF20003D8607047C3786BB3CB
:104B48004EF60053CEF20003DB686FEA0303C3F3AB
:104B58000223C3F10402417801FA02F24FF00F0177
:104B680021FA03F3817803EA010343EA0203027896
:104B78004FEA0310C0B24EF20013CEF2000302EB6C
:104B8800030181F800034FEA521102F01F024FF0AF
:104B9800010000FA02F243F8212010E003784FEAFE
:104BA800531203F01F034FF0010101FA03F14EF213
:104BB8000013CEF2000302F1200243F822107047DE
:104BC80021F0604121F07F0141EA00014EF60053D7
:104BD800CEF200039960704741B14EF60053CEF211
:104BE80000031A6940EA0200186107E04EF6005314
:104BF800CEF200031A6922EA00001861704700BF6C
:104C0800042801BF4EF21003CEF200031A6842F0E6
:104C180004020FBF1A604EF21003CEF200031A68A6
:104C28001CBF22F004021A60704700BF10B443682A
:104C380023F4702323F480730A6843EA02030A7991
:104C480043EA0223436084688A68CB6842EA030225
:104C58004FF2FD73CFF6F17304EA030342EA03034C
:104C68004A7943EA42038360C26A22F470020B7CE9
:104C780003F1FF33DBB242EA0353C36210BC70474F
:104C88004FF000030360037143718360C3604FF00A
:104C980001030374704700BF21B1836843F0010327
:104CA800836003E0836823F001038360704700BFDB
:104CB80021B1836843F48073836003E0836823F43D
:104CC80080738360704700BFC9B222B1436841EA6C
:104CD8000301416003E0436823EA01014160704732
:104CE800836843F008038360704700BF8068C0F39F
:104CF800C0007047836843F004038360704700BFB7
:104D08008068C0F38000704721B1836843F4A00332
:104D1800836003E0836823F4A0038360704700BFC7
:104D28008068C0F380507047436823F4604301F102
:104D3800FF3143EA41334360704700BF21B1436804
:104D480043F40063436003E0436823F40063436073
:104D5800704700BF30B4092910D9C56801EB410C70
:104D6800ACF11E0C4FF0070404FA0CF425EA040415
:104D780003FA0CFC44EA0C03C3600DE0056901EB7F
:104D8800410C4FF0070404FA0CF425EA040403FA72
:104D98000CFC44EA0C030361062A10D8446B02F1A8
:104DA800FF3202EB82024FF01F0303FA02F324EAF8
:104DB800030301FA02F143EA0102426322E00C2AEA
:104DC80010D8046B02EB8202A2F123024FF01F03FA
:104DD80003FA02F324EA030301FA02F143EA0102A7
:104DE80002630FE0C46A02EB8202A2F141024FF0B3
:104DF8001F0303FA02F324EA030301FA02F143EA68
:104E08000102C26230BC704721B1836843F4801349
:104E1800836003E0836823F480138360704700BFD6
:104E2800C06C80B2704700BF42F24C43C4F2010329
:104E38001868704721B1436843F48063436003E016
:104E4800436823F480634360704700BF21B143681F
:104E580043F48053436003E0436823F48053436082
:104E6800704700BF836823F4E04341EA030383608B
:104E7800704700BF21B1836843F40043836003E0B7
:104E8800836823F400438360704700BF21B18368BF
:104E980043F40213836003E0836823F402138360FE
:104EA800704700BF8068C0F34050704730B409298C
:104EB80010D9C56801EB410CACF11E0C4FF007048A
:104EC80004FA0CF425EA040403FA0CFC44EA0C0383
:104ED800C3600DE0056901EB410C4FF0070404FACB
:104EE8000CF425EA040403FA0CFC44EA0C030361FD
:104EF800836BC3F3015CCCEB020202F10202D2B273
:104F080002EB82024FF01F0C0CFA02FC23EA0C039E
:104F180001FA02F143EA0103836330BC704700BF22
:104F2800836B23F4401301F1FF3143EA0153836398
:104F3800704700BF82B04FF0000301930190019BBE
:104F48000B440193019B1A6002B0704782B04FF086
:104F5800000301930190019B03F128030B44019383
:104F6800019B186880B202B0704700BF436823F401
:104F7800400323F4007341EA03034360704700BF12
:104F880041628262704700BF436823F01F0341EA11
:104F980003034360704700BF40B142F20043C4F2CC
:104FA80001039A6842F400029A6007E042F2004363
:104FB800C4F201039A6822F400029A60704700BFA5
:104FC800036819420CBF0020012070476FEA0101F5
:104FD800016070474268036813EA112308BF002084
:104FE80004D0C9B211420CBF00200120704700BF95
:104FF8006FEA11210160704708B542F20043C4F21C
:10500800010398420CD14FF400704FF0010102F0F7
:105018009DFE4FF400704FF0000102F097FE24E06F
:1050280042F60003C4F2010398420CD14FF48060A9
:105038004FF0010102F08AFE4FF480604FF000014A
:1050480002F084FE11E043F60043C4F201039842E3
:105058000BD14FF400404FF0010102F077FE4FF4FE
:1050680000404FF0000102F071FE08BD48F20463F1
:10507800C4F20D231860704748F20063C4F20D2390
:105088001860704748F28863C4F20D2318607047AF
:1050980046F60042C4F20002938D23F460734FEA8F
:1050A80003434FEA134340EA03039385704700BF65
:1050B80046F60042C4F20002938D23F07F034FEAC4
:1050C80003434FEA134340EA03039385704700BF45
:1050D80082B04FF00003019346F60043C4F2000388
:1050E8000193019B03440193019B196002B070472F
:1050F80082B04FF00003019346F60043C4F2000368
:105108000193019B03440193019B188880B202B06C
:10511800704700BF48F2A063C4F20D231868C0B2FC
:10512800704700BF46F60043C4F200039A8E92B25D
:1051380042F001029A86704748F2A463C4F20D2334
:105148001868C0B2704700BF46F60043C4F20003B7
:105158009A8E92B242F002029A86704708B54FF0D2
:10516800010002F01BFE4FF0000002F017FE08BD20
:10517800036823F002030360036843F0010303603C
:10518800436813F0010F0BD14FF000034FF6FF7C7B
:10519800426812F0010F03D103F101036345F7D10F
:1051A800436813F0010F08BF002072D08B79012BE0
:1051B80003BF036843F08003036003681CBF23F048
:1051C80080030360CB79012B03BF036843F04003DE
:1051D800036003681CBF23F0400303600B7A012BB4
:1051E80003BF036843F02003036003681CBF23F078
:1051F800200303604B7A012B03BF036843F01003BD
:10520800036003681CBF23F0100303608B7A012B33
:1052180003BF036843F00803036003681CBF23F05F
:1052280008030360CB7A012B03BF036843F0040330
:10523800036003681CBF23F004030360CA788B78FB
:105248004FEA837343EA02630A7943EA02434A79DD
:1052580043EA02520B8803F1FF3342EA0303C361B6
:10526800036823F001030360436813F0010F0BD0B8
:105278004FF000034FF6FF71426812F0010F03D0A0
:1052880003F101038B42F7D1406880F0010000F080
:105298000100704730B490F80AC04FF0010101FADC
:1052A8000CF146F20043C4F20003D3F8002242F0A6
:1052B8000102C3F80022D3F81C426FEA010202EA95
:1052C8000404C3F81C42037BCBB946F20043C4F282
:1052D8000003D3F80C4202EA0404C3F80C42C58860
:1052E800448844EA05440CF1480C43F83C4085885E
:1052F800048844EA054403EBCC035C601AE0012B04
:1053080018D146F20044C4F20004D4F80C3241EA41
:105318000303C4F80C320588438843EA05430CF1BB
:10532800480C44F83C308588C38843EA054304EBBD
:10533800CC046360C37A53B946F20043C4F2000355
:10534800D3F8044202EA0404C3F8044209E046F22E
:105358000043C4F20003D3F8044241EA0404C3F84A
:105368000442038953B946F20043C4F20003D3F858
:10537800144202EA0402C3F814220BE0012B01BF15
:1053880046F20043C4F20003D3F814220A4308BFCC
:10539800C3F81422437B012B01BF46F20043C4F239
:1053A8000003D3F81C22114308BFC3F81C1246F2AD
:1053B8000043C4F20003D3F8002222F00102C3F82C
:1053C800002230BC704700BF4FF000038371C371E7
:1053D800037243728372C3728370C3704FF0030306
:1053E80003714FF0020343714FF0010303807047CC
:1053F80046F20043C4F20003D3F8002242F001024F
:10540800C3F80022D3F8002222F47C5222F00E02C4
:10541800C3F80022D3F8002242EA0022C3F800228F
:10542800D3F8002222F00102C3F80022704700BF1F
:1054380021B1036843F48033036003E0036823F475
:1054480080330360704700BFB1B1036843F0800345
:105458000360D0F8843143F48073C0F88431D0F805
:10546800943143F48073C0F89431D0F8A43143F4F4
:105478008073C0F8A43115E0036823F0800303604B
:10548800D0F8843123F48073C0F88431D0F8943193
:1054980023F48073C0F89431D0F8A43123F48073D6
:1054A800C0F8A431704700BF70B40346826812F098
:1054B800806F18BF00200DD19A6812F0006F18BFD6
:1054C800012007D19A6812F0805F08BF042060D0DD
:1054D8004FF00200844600F1180203EB0212146830
:1054E80004F0010414600A7A62B900F1180203EBAF
:1054F800021215680E684C7A44EA465444EA0504D8
:1055080014600DE000F1180403EB041425684E68DC
:1055180042EAC60242EA05024D7A42EA05022260E0
:105528008A7A02F00F028A720CF1180403EB041451
:10553800224652F8045F25F00F05156015688E7A2B
:1055480046EA050515608A7B4D7B4FEA054545EA25
:105558000265CA7A45EA02050A7B45EA022503EB99
:105568000C1303F5C472156091F812C04A7C4FEA17
:10557800024242EA0C6291F80FC042EA0C02097C2E
:1055880042EA012203F5C6731A60236843F0010357
:10559800236070BC704700BF01290DD021B10229DA
:1055A80018BF002317D10FE0826840F20303C0F24E
:1055B800004302EA03030EE0826840F20033C0F6BB
:1055C800000302EA030306E0826840F20003C1F226
:1055D800030302EA030340F20302C0F200429342CB
:1055E80014D001D87BB10BE040F20032C0F60002C3
:1055F80093420BD040F20002C1F20302934205D05D
:105608004FF0000004E04FF0020001E04FF001000D
:10561800704700BF012908D011B102290ED109E055
:10562800836843F08003836008E0836843F40043A1
:10563800836003E0836843F400038360704700BF1E
:1056480030B40B4601F11B0400EB0414246804F089
:105658000404147244B901F11B0400EB0414246817
:105668004FEA5454146007E001F11B0400EB0414E2
:1056780024684FEAD404546003F11B0400EB0414BB
:10568800256805F0020C82F809C054F8045F05F09B
:105698000F0C82F80AC024684FEA142C82F813C051
:1056A80000EB031303F5DC742568D57225684FEA0F
:1056B800152C82F80CC025684FEA154C82F80DC0ED
:1056C80024684FEA146C82F80EC003F5DE731C6878
:1056D800D4731C684FEA142C82F810C01C684FEA77
:1056E800144C82F811C01B684FEA1363937421B9F4
:1056F800C36843F02003C36003E0036943F0200359
:10570800036130BC704700BF21B9C36843F0200370
:10571800C36003E0036943F020030361704700BFDF
:1057280019B9C06800F0030005E0012912BF002084
:10573800006900F003007047E1B9036823F0030330
:1057480043F001030360436803F00303012B09D00E
:105758004FF6FF73426802F00302012A02D013F1E8
:10576800FF33F7D1406800F00300012814BF002080
:10577800012039E0012917D1036823F003030360EE
:10578800436813F0030F08D04FF6FF73426812F016
:10579800030F02D013F1FF33F8D1436813F0030F5E
:1057A80014BF002001201FE0022918BF00201BD1D0
:1057B800036823F0030343F002030360436803F024
:1057C8000303022B09D04FF6FF73426802F003026D
:1057D800022A02D013F1FF33F7D1406800F003002A
:1057E800022814BF00200120704700BF036823F07F
:1057F800030343F002030360406800F0030002283B
:1058080014BF002001207047036823F002030360DF
:10581800436813F0020F08D04FF6FF73426812F086
:10582800020F02D013F1FF33F8D1406880F0020074
:10583800C0F34000704700BF806900F070007047F7
:1058480080694FEA106070478069C0F3074070476D
:1058580022B1436941EA0301416103E0436923EA54
:1058680001014161704700BF11F4700F09D08369CD
:1058780023F07F4323F470030B420CBF0020012068
:105888002FE011F0807F09D0436823F07F4323F491
:1058980070030B420CBF0020012022E011F0006FC2
:1058A80009D0836823F07F4323F470030B420CBFB5
:1058B8000020012015E011F0007F09D0C36823F013
:1058C8007F4323F470030B420CBF0020012008E043
:1058D800036923F07F4323F470030B420CBF0020BD
:1058E8000120704740F27003C3F2F003994204BFED
:1058F8000023836112D021F07F4323F4700311F059
:10590800007F18BFC36009D111F0806F18BF036111
:1059180004D111F0006F14BF83604360704700BF6B
:10592800B1F5807F04BF0423436050D018D80829FC
:1059380004BF1023C3604AD00AD8012902BF40F22D
:105948000113C0F20103836041D004293FD125E04F
:10595800202904BF0823036139D0402937D121E029
:10596800B1F5006F26D009D8B1F5007F04BF042334
:1059780043602CD0B1F5806F29D117E0B1F5803F95
:1059880004BF0823436022D0B1F5003F04BF1023B1
:1059980043601CD0B1F5004F19D112E04FF0080355
:1059A800C36014E04FF01003036110E04FF00403EC
:1059B80043600CE04FF0000383614FF00403436041
:1059C80005E04FF0000383614FF004034360704724
:1059D80001420CBF00200120704700BF08B5436991
:1059E80019427FD040294DD00ED8042932D004D88E
:1059F800012921D0022975D126E0102936D0202985
:105A08003AD008296ED12BE0B1F5006F5ED009D8E5
:105A1800B1F5007F4ED0B1F5806F51D0B1F5807FE0
:105A280060D141E0B1F5803F32D0B1F5003F35D0CB
:105A3800B1F5004F56D14FE0806840F20111C0F235
:105A48000101FFF7C5FF4FE0C0684FF00301FFF702
:105A5800BFFF49E0C0684FF00801FFF7B9FF43E016
:105A6800C0684FF01001FFF7B3FF3DE000694FF049
:105A78000301FFF7ADFF37E000694FF00801FFF7BA
:105A8800A7FF31E000694FF01001FFF7A1FF2BE0FD
:105A980040684FF00801FFF79BFF25E040684FF092
:105AA8001001FFF795FF1FE080694FF00101FFF734
:105AB8008FFF19E080694FF00201FFF789FF13E0BB
:105AC80080694FF00401FFF783FF0DE080694FF014
